{
  "contractName": "TokenFarm",
  "abi": [
    {
      "inputs": [
        {
          "internalType": "contract DaiToken",
          "name": "_daiToken",
          "type": "address"
        },
        {
          "internalType": "contract DappToken",
          "name": "_dappToken",
          "type": "address"
        }
      ],
      "stateMutability": "nonpayable",
      "type": "constructor"
    },
    {
      "inputs": [
        {
          "internalType": "address",
          "name": "",
          "type": "address"
        }
      ],
      "name": "daiStakeBalance",
      "outputs": [
        {
          "internalType": "uint256",
          "name": "",
          "type": "uint256"
        }
      ],
      "stateMutability": "view",
      "type": "function"
    },
    {
      "inputs": [
        {
          "internalType": "address",
          "name": "",
          "type": "address"
        }
      ],
      "name": "hasStaked",
      "outputs": [
        {
          "internalType": "bool",
          "name": "",
          "type": "bool"
        }
      ],
      "stateMutability": "view",
      "type": "function"
    },
    {
      "inputs": [
        {
          "internalType": "address",
          "name": "",
          "type": "address"
        }
      ],
      "name": "isStaking",
      "outputs": [
        {
          "internalType": "bool",
          "name": "",
          "type": "bool"
        }
      ],
      "stateMutability": "view",
      "type": "function"
    },
    {
      "inputs": [],
      "name": "name",
      "outputs": [
        {
          "internalType": "string",
          "name": "",
          "type": "string"
        }
      ],
      "stateMutability": "view",
      "type": "function"
    },
    {
      "inputs": [
        {
          "internalType": "uint256",
          "name": "",
          "type": "uint256"
        }
      ],
      "name": "stakers",
      "outputs": [
        {
          "internalType": "address",
          "name": "",
          "type": "address"
        }
      ],
      "stateMutability": "view",
      "type": "function"
    },
    {
      "inputs": [],
      "name": "getName",
      "outputs": [
        {
          "internalType": "string",
          "name": "",
          "type": "string"
        }
      ],
      "stateMutability": "view",
      "type": "function"
    },
    {
      "inputs": [
        {
          "internalType": "uint256",
          "name": "amount",
          "type": "uint256"
        }
      ],
      "name": "stakeToken",
      "outputs": [],
      "stateMutability": "nonpayable",
      "type": "function"
    },
    {
      "inputs": [],
      "name": "issueTokens",
      "outputs": [],
      "stateMutability": "nonpayable",
      "type": "function"
    }
  ],
  "bytecode": "0x60806040526040518060400160405280600981526020017f546f6b656e4661726d0000000000000000000000000000000000000000000000815250600090805190602001906200005192919062000150565b503480156200005f57600080fd5b506040516200110f3803806200110f83398181016040528101906200008591906200022e565b81600160006101000a81548173ffffffffffffffffffffffffffffffffffffffff021916908373ffffffffffffffffffffffffffffffffffffffff16021790555080600260006101000a81548173ffffffffffffffffffffffffffffffffffffffff021916908373ffffffffffffffffffffffffffffffffffffffff16021790555033600760006101000a81548173ffffffffffffffffffffffffffffffffffffffff021916908373ffffffffffffffffffffffffffffffffffffffff160217905550505062000364565b8280546200015e90620002cb565b90600052602060002090601f016020900481019282620001825760008555620001ce565b82601f106200019d57805160ff1916838001178555620001ce565b82800160010185558215620001ce579182015b82811115620001cd578251825591602001919060010190620001b0565b5b509050620001dd9190620001e1565b5090565b5b80821115620001fc576000816000905550600101620001e2565b5090565b600081519050620002118162000330565b92915050565b60008151905062000228816200034a565b92915050565b600080604083850312156200024257600080fd5b6000620002528582860162000200565b9250506020620002658582860162000217565b9150509250929050565b60006200027c82620002ab565b9050919050565b600062000290826200026f565b9050919050565b6000620002a4826200026f565b9050919050565b600073ffffffffffffffffffffffffffffffffffffffff82169050919050565b60006002820490506001821680620002e457607f821691505b60208210811415620002fb57620002fa62000301565b5b50919050565b7f4e487b7100000000000000000000000000000000000000000000000000000000600052602260045260246000fd5b6200033b8162000283565b81146200034757600080fd5b50565b620003558162000297565b81146200036157600080fd5b50565b610d9b80620003746000396000f3fe608060405234801561001057600080fd5b50600436106100885760003560e01c80636f49712b1161005b5780636f49712b14610103578063c93c8f3414610133578063cda6b84714610163578063fd5e6dd11461017f57610088565b806306fdde031461008d57806317d7de7c146100ab5780632cc267c1146100c957806360ab5852146100f9575b600080fd5b6100956101af565b6040516100a29190610acc565b60405180910390f35b6100b361023d565b6040516100c09190610acc565b60405180910390f35b6100e360048036038101906100de91906108af565b6102cf565b6040516100f09190610b2e565b60405180910390f35b6101016102e7565b005b61011d600480360381019061011891906108af565b610506565b60405161012a9190610ab1565b60405180910390f35b61014d600480360381019061014891906108af565b610526565b60405161015a9190610ab1565b60405180910390f35b61017d60048036038101906101789190610901565b610546565b005b61019960048036038101906101949190610901565b610831565b6040516101a69190610a36565b60405180910390f35b600080546101bc90610c36565b80601f01602080910402602001604051908101604052809291908181526020018280546101e890610c36565b80156102355780601f1061020a57610100808354040283529160200191610235565b820191906000526020600020905b81548152906001019060200180831161021857829003601f168201915b505050505081565b60606000805461024c90610c36565b80601f016020809104026020016040519081016040528092919081815260200182805461027890610c36565b80156102c55780601f1061029a576101008083540402835291602001916102c5565b820191906000526020600020905b8154815290600101906020018083116102a857829003601f168201915b5050505050905090565b60036020528060005260406000206000915090505481565b600760009054906101000a900473ffffffffffffffffffffffffffffffffffffffff1673ffffffffffffffffffffffffffffffffffffffff163373ffffffffffffffffffffffffffffffffffffffff1614610377576040517f08c379a000000000000000000000000000000000000000000000000000000000815260040161036e90610b0e565b60405180910390fd5b60005b600680549050811015610503576000600682815481106103c3577f4e487b7100000000000000000000000000000000000000000000000000000000600052603260045260246000fd5b9060005260206000200160009054906101000a900473ffffffffffffffffffffffffffffffffffffffff1690506000600360008373ffffffffffffffffffffffffffffffffffffffff1673ffffffffffffffffffffffffffffffffffffffff16815260200190815260200160002054905060008111156104ee57600260009054906101000a900473ffffffffffffffffffffffffffffffffffffffff1673ffffffffffffffffffffffffffffffffffffffff1663a9059cbb83836040518363ffffffff1660e01b815260040161049a929190610a88565b602060405180830381600087803b1580156104b457600080fd5b505af11580156104c8573d6000803e3d6000fd5b505050506040513d601f19601f820116820180604052508101906104ec91906108d8565b505b505080806104fb90610c68565b91505061037a565b50565b60056020528060005260406000206000915054906101000a900460ff1681565b60046020528060005260406000206000915054906101000a900460ff1681565b60008111610589576040517f08c379a000000000000000000000000000000000000000000000000000000000815260040161058090610aee565b60405180910390fd5b600160009054906101000a900473ffffffffffffffffffffffffffffffffffffffff1673ffffffffffffffffffffffffffffffffffffffff166323b872dd3330846040518463ffffffff1660e01b81526004016105e893929190610a51565b602060405180830381600087803b15801561060257600080fd5b505af1158015610616573d6000803e3d6000fd5b505050506040513d601f19601f8201168201806040525081019061063a91906108d8565b5080600360003373ffffffffffffffffffffffffffffffffffffffff1673ffffffffffffffffffffffffffffffffffffffff168152602001908152602001600020546106869190610b65565b600360003373ffffffffffffffffffffffffffffffffffffffff1673ffffffffffffffffffffffffffffffffffffffff16815260200190815260200160002081905550600460003373ffffffffffffffffffffffffffffffffffffffff1673ffffffffffffffffffffffffffffffffffffffff16815260200190815260200160002060009054906101000a900460ff1661077e576006339080600181540180825580915050600190039060005260206000200160009091909190916101000a81548173ffffffffffffffffffffffffffffffffffffffff021916908373ffffffffffffffffffffffffffffffffffffffff1602179055505b6001600560003373ffffffffffffffffffffffffffffffffffffffff1673ffffffffffffffffffffffffffffffffffffffff16815260200190815260200160002060006101000a81548160ff0219169083151502179055506001600460003373ffffffffffffffffffffffffffffffffffffffff1673ffffffffffffffffffffffffffffffffffffffff16815260200190815260200160002060006101000a81548160ff02191690831515021790555050565b6006818154811061084157600080fd5b906000526020600020016000915054906101000a900473ffffffffffffffffffffffffffffffffffffffff1681565b60008135905061087f81610d20565b92915050565b60008151905061089481610d37565b92915050565b6000813590506108a981610d4e565b92915050565b6000602082840312156108c157600080fd5b60006108cf84828501610870565b91505092915050565b6000602082840312156108ea57600080fd5b60006108f884828501610885565b91505092915050565b60006020828403121561091357600080fd5b60006109218482850161089a565b91505092915050565b61093381610bbb565b82525050565b61094281610bcd565b82525050565b600061095382610b49565b61095d8185610b54565b935061096d818560208601610c03565b61097681610d0f565b840191505092915050565b600061098e602483610b54565b91507f74686520616d6f756e74206d7573742062652067726561746572207468616e2060008301527f7a65726f000000000000000000000000000000000000000000000000000000006020830152604082019050919050565b60006109f4601883610b54565b91507f63616c6c6572206d75737420626520746865206f776e657200000000000000006000830152602082019050919050565b610a3081610bf9565b82525050565b6000602082019050610a4b600083018461092a565b92915050565b6000606082019050610a66600083018661092a565b610a73602083018561092a565b610a806040830184610a27565b949350505050565b6000604082019050610a9d600083018561092a565b610aaa6020830184610a27565b9392505050565b6000602082019050610ac66000830184610939565b92915050565b60006020820190508181036000830152610ae68184610948565b905092915050565b60006020820190508181036000830152610b0781610981565b9050919050565b60006020820190508181036000830152610b27816109e7565b9050919050565b6000602082019050610b436000830184610a27565b92915050565b600081519050919050565b600082825260208201905092915050565b6000610b7082610bf9565b9150610b7b83610bf9565b9250827fffffffffffffffffffffffffffffffffffffffffffffffffffffffffffffffff03821115610bb057610baf610cb1565b5b828201905092915050565b6000610bc682610bd9565b9050919050565b60008115159050919050565b600073ffffffffffffffffffffffffffffffffffffffff82169050919050565b6000819050919050565b60005b83811015610c21578082015181840152602081019050610c06565b83811115610c30576000848401525b50505050565b60006002820490506001821680610c4e57607f821691505b60208210811415610c6257610c61610ce0565b5b50919050565b6000610c7382610bf9565b91507fffffffffffffffffffffffffffffffffffffffffffffffffffffffffffffffff821415610ca657610ca5610cb1565b5b600182019050919050565b7f4e487b7100000000000000000000000000000000000000000000000000000000600052601160045260246000fd5b7f4e487b7100000000000000000000000000000000000000000000000000000000600052602260045260246000fd5b6000601f19601f8301169050919050565b610d2981610bbb565b8114610d3457600080fd5b50565b610d4081610bcd565b8114610d4b57600080fd5b50565b610d5781610bf9565b8114610d6257600080fd5b5056fea2646970667358221220abf4057bc61b16d055f8cc938ebe2db9c9f0da6dd3586a03aecbbeffb56842ac64736f6c63430008000033",
  "immutableReferences": {},
  "source": "// SPDX-License-Identifier: MIT\r\npragma solidity >= 0.7.0 < 0.9.0;\r\n\r\nimport \"./DaiToken.sol\";\r\nimport \"./DappToken.sol\";\r\n\r\ncontract TokenFarm {\r\n    string public name = \"TokenFarm\";\r\n    DaiToken private daiToken;\r\n    DappToken private dappToken;\r\n    mapping(address => uint) public daiStakeBalance; //amount of dai this individaul has staked in the farm\r\n    mapping(address => bool) public hasStaked; //flag that checks if the person has staked before\r\n    mapping(address => bool) public isStaking; //flag that checks if the person is currently staking\r\n    address[] public stakers;\r\n    address private owner;\r\n\r\n    constructor(DaiToken _daiToken, DappToken _dappToken) {\r\n        daiToken = _daiToken;\r\n        dappToken = _dappToken;\r\n        owner = msg.sender;\r\n    }\r\n\r\n    function getName() public view returns (string memory) {\r\n        return name;\r\n    }\r\n\r\n\r\n    //stake token (deposit)\r\n    function stakeToken(uint amount) public {\r\n        require(amount > 0, \"the amount must be greater than zero\");\r\n        //transfer dai from user to this farm\r\n        daiToken.transferFrom(msg.sender, address(this), amount);\r\n        //update their dai stake balance\r\n        daiStakeBalance[msg.sender] = daiStakeBalance[msg.sender] + amount;\r\n        \r\n        // add them to list of stakers if they have staked at most once\r\n        if(!hasStaked[msg.sender])\r\n            stakers.push(msg.sender);\r\n\r\n        isStaking[msg.sender] = true;\r\n        hasStaked[msg.sender] = true;\r\n    }\r\n    //unstake token (withdraw)\r\n\r\n    //earn interest - issue tokens\r\n    function issueTokens() public{\r\n        require(msg.sender == owner, \"caller must be the owner\");\r\n        for (uint256 i = 0; i < stakers.length; i++) {\r\n            address receipient = stakers[i];\r\n            uint balance = daiStakeBalance[receipient];\r\n            if(balance > 0)\r\n                dappToken.transfer(receipient, balance);\r\n        }\r\n    }\r\n}",
  "sourcePath": "C:\\dev\\dapp\\src\\contracts\\TokenFarm.sol",
  "compiler": {
    "name": "solc",
    "version": "0.8.0+commit.c7dfd78e.Emscripten.clang"
  },
  "schemaVersion": "3.4.3",
  "updatedAt": "2021-11-23T15:47:47.210Z",
  "devdoc": {
    "kind": "dev",
    "methods": {},
    "version": 1
  },
  "userdoc": {
    "kind": "user",
    "methods": {},
    "version": 1
  }
}