{
  "contractName": "TokenFarm",
  "abi": [
    {
      "inputs": [
        {
          "internalType": "contract DaiToken",
          "name": "_daiToken",
          "type": "address"
        },
        {
          "internalType": "contract DappToken",
          "name": "_dappToken",
          "type": "address"
        }
      ],
      "stateMutability": "nonpayable",
      "type": "constructor"
    },
    {
      "inputs": [
        {
          "internalType": "address",
          "name": "",
          "type": "address"
        }
      ],
      "name": "daiStakeBalance",
      "outputs": [
        {
          "internalType": "uint256",
          "name": "",
          "type": "uint256"
        }
      ],
      "stateMutability": "view",
      "type": "function",
      "constant": true
    },
    {
      "inputs": [
        {
          "internalType": "address",
          "name": "",
          "type": "address"
        }
      ],
      "name": "hasStaked",
      "outputs": [
        {
          "internalType": "bool",
          "name": "",
          "type": "bool"
        }
      ],
      "stateMutability": "view",
      "type": "function",
      "constant": true
    },
    {
      "inputs": [
        {
          "internalType": "address",
          "name": "",
          "type": "address"
        }
      ],
      "name": "isStaking",
      "outputs": [
        {
          "internalType": "bool",
          "name": "",
          "type": "bool"
        }
      ],
      "stateMutability": "view",
      "type": "function",
      "constant": true
    },
    {
      "inputs": [],
      "name": "name",
      "outputs": [
        {
          "internalType": "string",
          "name": "",
          "type": "string"
        }
      ],
      "stateMutability": "view",
      "type": "function",
      "constant": true
    },
    {
      "inputs": [
        {
          "internalType": "uint256",
          "name": "",
          "type": "uint256"
        }
      ],
      "name": "stakers",
      "outputs": [
        {
          "internalType": "address",
          "name": "",
          "type": "address"
        }
      ],
      "stateMutability": "view",
      "type": "function",
      "constant": true
    },
    {
      "inputs": [],
      "name": "getName",
      "outputs": [
        {
          "internalType": "string",
          "name": "",
          "type": "string"
        }
      ],
      "stateMutability": "view",
      "type": "function",
      "constant": true
    },
    {
      "inputs": [
        {
          "internalType": "uint256",
          "name": "amount",
          "type": "uint256"
        }
      ],
      "name": "stakeToken",
      "outputs": [],
      "stateMutability": "nonpayable",
      "type": "function"
    },
    {
      "inputs": [],
      "name": "unstakeTokens",
      "outputs": [],
      "stateMutability": "nonpayable",
      "type": "function"
    },
    {
      "inputs": [],
      "name": "issueTokens",
      "outputs": [],
      "stateMutability": "nonpayable",
      "type": "function"
    }
  ],
  "bytecode": "0x60806040526040518060400160405280600981526020017f546f6b656e4661726d0000000000000000000000000000000000000000000000815250600090805190602001906200005192919062000150565b503480156200005f57600080fd5b506040516200135b3803806200135b83398181016040528101906200008591906200022e565b81600160006101000a81548173ffffffffffffffffffffffffffffffffffffffff021916908373ffffffffffffffffffffffffffffffffffffffff16021790555080600260006101000a81548173ffffffffffffffffffffffffffffffffffffffff021916908373ffffffffffffffffffffffffffffffffffffffff16021790555033600760006101000a81548173ffffffffffffffffffffffffffffffffffffffff021916908373ffffffffffffffffffffffffffffffffffffffff160217905550505062000364565b8280546200015e90620002cb565b90600052602060002090601f016020900481019282620001825760008555620001ce565b82601f106200019d57805160ff1916838001178555620001ce565b82800160010185558215620001ce579182015b82811115620001cd578251825591602001919060010190620001b0565b5b509050620001dd9190620001e1565b5090565b5b80821115620001fc576000816000905550600101620001e2565b5090565b600081519050620002118162000330565b92915050565b60008151905062000228816200034a565b92915050565b600080604083850312156200024257600080fd5b6000620002528582860162000200565b9250506020620002658582860162000217565b9150509250929050565b60006200027c82620002ab565b9050919050565b600062000290826200026f565b9050919050565b6000620002a4826200026f565b9050919050565b600073ffffffffffffffffffffffffffffffffffffffff82169050919050565b60006002820490506001821680620002e457607f821691505b60208210811415620002fb57620002fa62000301565b5b50919050565b7f4e487b7100000000000000000000000000000000000000000000000000000000600052602260045260246000fd5b6200033b8162000283565b81146200034757600080fd5b50565b620003558162000297565b81146200036157600080fd5b50565b610fe780620003746000396000f3fe608060405234801561001057600080fd5b50600436106100935760003560e01c80636f49712b116100665780636f49712b1461010e578063a5ce413b1461013e578063c93c8f3414610148578063cda6b84714610178578063fd5e6dd11461019457610093565b806306fdde031461009857806317d7de7c146100b65780632cc267c1146100d457806360ab585214610104575b600080fd5b6100a06101c4565b6040516100ad9190610cf8565b60405180910390f35b6100be610252565b6040516100cb9190610cf8565b60405180910390f35b6100ee60048036038101906100e99190610a9b565b6102e4565b6040516100fb9190610d7a565b60405180910390f35b61010c6102fc565b005b61012860048036038101906101239190610a9b565b61051b565b6040516101359190610cdd565b60405180910390f35b61014661053b565b005b610162600480360381019061015d9190610a9b565b610712565b60405161016f9190610cdd565b60405180910390f35b610192600480360381019061018d9190610aed565b610732565b005b6101ae60048036038101906101a99190610aed565b610a1d565b6040516101bb9190610c62565b60405180910390f35b600080546101d190610e82565b80601f01602080910402602001604051908101604052809291908181526020018280546101fd90610e82565b801561024a5780601f1061021f5761010080835404028352916020019161024a565b820191906000526020600020905b81548152906001019060200180831161022d57829003601f168201915b505050505081565b60606000805461026190610e82565b80601f016020809104026020016040519081016040528092919081815260200182805461028d90610e82565b80156102da5780601f106102af576101008083540402835291602001916102da565b820191906000526020600020905b8154815290600101906020018083116102bd57829003601f168201915b5050505050905090565b60036020528060005260406000206000915090505481565b600760009054906101000a900473ffffffffffffffffffffffffffffffffffffffff1673ffffffffffffffffffffffffffffffffffffffff163373ffffffffffffffffffffffffffffffffffffffff161461038c576040517f08c379a000000000000000000000000000000000000000000000000000000000815260040161038390610d3a565b60405180910390fd5b60005b600680549050811015610518576000600682815481106103d8577f4e487b7100000000000000000000000000000000000000000000000000000000600052603260045260246000fd5b9060005260206000200160009054906101000a900473ffffffffffffffffffffffffffffffffffffffff1690506000600360008373ffffffffffffffffffffffffffffffffffffffff1673ffffffffffffffffffffffffffffffffffffffff168152602001908152602001600020549050600081111561050357600260009054906101000a900473ffffffffffffffffffffffffffffffffffffffff1673ffffffffffffffffffffffffffffffffffffffff1663a9059cbb83836040518363ffffffff1660e01b81526004016104af929190610cb4565b602060405180830381600087803b1580156104c957600080fd5b505af11580156104dd573d6000803e3d6000fd5b505050506040513d601f19601f820116820180604052508101906105019190610ac4565b505b5050808061051090610eb4565b91505061038f565b50565b60056020528060005260406000206000915054906101000a900460ff1681565b6000600360003373ffffffffffffffffffffffffffffffffffffffff1673ffffffffffffffffffffffffffffffffffffffff168152602001908152602001600020549050600081116105c2576040517f08c379a00000000000000000000000000000000000000000000000000000000081526004016105b990610d5a565b60405180910390fd5b600160009054906101000a900473ffffffffffffffffffffffffffffffffffffffff1673ffffffffffffffffffffffffffffffffffffffff1663a9059cbb33836040518363ffffffff1660e01b815260040161061f929190610cb4565b602060405180830381600087803b15801561063957600080fd5b505af115801561064d573d6000803e3d6000fd5b505050506040513d601f19601f820116820180604052508101906106719190610ac4565b506000600360003373ffffffffffffffffffffffffffffffffffffffff1673ffffffffffffffffffffffffffffffffffffffff168152602001908152602001600020819055506000600560003373ffffffffffffffffffffffffffffffffffffffff1673ffffffffffffffffffffffffffffffffffffffff16815260200190815260200160002060006101000a81548160ff02191690831515021790555050565b60046020528060005260406000206000915054906101000a900460ff1681565b60008111610775576040517f08c379a000000000000000000000000000000000000000000000000000000000815260040161076c90610d1a565b60405180910390fd5b600160009054906101000a900473ffffffffffffffffffffffffffffffffffffffff1673ffffffffffffffffffffffffffffffffffffffff166323b872dd3330846040518463ffffffff1660e01b81526004016107d493929190610c7d565b602060405180830381600087803b1580156107ee57600080fd5b505af1158015610802573d6000803e3d6000fd5b505050506040513d601f19601f820116820180604052508101906108269190610ac4565b5080600360003373ffffffffffffffffffffffffffffffffffffffff1673ffffffffffffffffffffffffffffffffffffffff168152602001908152602001600020546108729190610db1565b600360003373ffffffffffffffffffffffffffffffffffffffff1673ffffffffffffffffffffffffffffffffffffffff16815260200190815260200160002081905550600460003373ffffffffffffffffffffffffffffffffffffffff1673ffffffffffffffffffffffffffffffffffffffff16815260200190815260200160002060009054906101000a900460ff1661096a576006339080600181540180825580915050600190039060005260206000200160009091909190916101000a81548173ffffffffffffffffffffffffffffffffffffffff021916908373ffffffffffffffffffffffffffffffffffffffff1602179055505b6001600560003373ffffffffffffffffffffffffffffffffffffffff1673ffffffffffffffffffffffffffffffffffffffff16815260200190815260200160002060006101000a81548160ff0219169083151502179055506001600460003373ffffffffffffffffffffffffffffffffffffffff1673ffffffffffffffffffffffffffffffffffffffff16815260200190815260200160002060006101000a81548160ff02191690831515021790555050565b60068181548110610a2d57600080fd5b906000526020600020016000915054906101000a900473ffffffffffffffffffffffffffffffffffffffff1681565b600081359050610a6b81610f6c565b92915050565b600081519050610a8081610f83565b92915050565b600081359050610a9581610f9a565b92915050565b600060208284031215610aad57600080fd5b6000610abb84828501610a5c565b91505092915050565b600060208284031215610ad657600080fd5b6000610ae484828501610a71565b91505092915050565b600060208284031215610aff57600080fd5b6000610b0d84828501610a86565b91505092915050565b610b1f81610e07565b82525050565b610b2e81610e19565b82525050565b6000610b3f82610d95565b610b498185610da0565b9350610b59818560208601610e4f565b610b6281610f5b565b840191505092915050565b6000610b7a602483610da0565b91507f74686520616d6f756e74206d7573742062652067726561746572207468616e2060008301527f7a65726f000000000000000000000000000000000000000000000000000000006020830152604082019050919050565b6000610be0601883610da0565b91507f63616c6c6572206d75737420626520746865206f776e657200000000000000006000830152602082019050919050565b6000610c20601b83610da0565b91507f62616c616e6365206d757374206265206d6f7265207468616e203000000000006000830152602082019050919050565b610c5c81610e45565b82525050565b6000602082019050610c776000830184610b16565b92915050565b6000606082019050610c926000830186610b16565b610c9f6020830185610b16565b610cac6040830184610c53565b949350505050565b6000604082019050610cc96000830185610b16565b610cd66020830184610c53565b9392505050565b6000602082019050610cf26000830184610b25565b92915050565b60006020820190508181036000830152610d128184610b34565b905092915050565b60006020820190508181036000830152610d3381610b6d565b9050919050565b60006020820190508181036000830152610d5381610bd3565b9050919050565b60006020820190508181036000830152610d7381610c13565b9050919050565b6000602082019050610d8f6000830184610c53565b92915050565b600081519050919050565b600082825260208201905092915050565b6000610dbc82610e45565b9150610dc783610e45565b9250827fffffffffffffffffffffffffffffffffffffffffffffffffffffffffffffffff03821115610dfc57610dfb610efd565b5b828201905092915050565b6000610e1282610e25565b9050919050565b60008115159050919050565b600073ffffffffffffffffffffffffffffffffffffffff82169050919050565b6000819050919050565b60005b83811015610e6d578082015181840152602081019050610e52565b83811115610e7c576000848401525b50505050565b60006002820490506001821680610e9a57607f821691505b60208210811415610eae57610ead610f2c565b5b50919050565b6000610ebf82610e45565b91507fffffffffffffffffffffffffffffffffffffffffffffffffffffffffffffffff821415610ef257610ef1610efd565b5b600182019050919050565b7f4e487b7100000000000000000000000000000000000000000000000000000000600052601160045260246000fd5b7f4e487b7100000000000000000000000000000000000000000000000000000000600052602260045260246000fd5b6000601f19601f8301169050919050565b610f7581610e07565b8114610f8057600080fd5b50565b610f8c81610e19565b8114610f9757600080fd5b50565b610fa381610e45565b8114610fae57600080fd5b5056fea2646970667358221220b694f1416037b432c29fb10d4c8806a54b44aad27ebce9f05e5b97a2b77f315364736f6c63430008000033",
  "immutableReferences": {},
  "source": "// SPDX-License-Identifier: MIT\r\npragma solidity >= 0.7.0 < 0.9.0;\r\n\r\nimport \"./DaiToken.sol\";\r\nimport \"./DappToken.sol\";\r\n\r\ncontract TokenFarm {\r\n    string public name = \"TokenFarm\";\r\n    DaiToken private daiToken;\r\n    DappToken private dappToken;\r\n    mapping(address => uint) public daiStakeBalance; //amount of dai this individaul has staked in the farm\r\n    mapping(address => bool) public hasStaked; //flag that checks if the person has staked before\r\n    mapping(address => bool) public isStaking; //flag that checks if the person is currently staking\r\n    address[] public stakers;\r\n    address private owner;\r\n\r\n    constructor(DaiToken _daiToken, DappToken _dappToken) {\r\n        daiToken = _daiToken;\r\n        dappToken = _dappToken;\r\n        owner = msg.sender;\r\n    }\r\n\r\n    function getName() public view returns (string memory) {\r\n        return name;\r\n    }\r\n\r\n\r\n    //stake token (deposit)\r\n    function stakeToken(uint amount) public {\r\n        require(amount > 0, \"the amount must be greater than zero\");\r\n        //transfer dai from user to this farm\r\n        daiToken.transferFrom(msg.sender, address(this), amount);\r\n        //update their dai stake balance\r\n        daiStakeBalance[msg.sender] = daiStakeBalance[msg.sender] + amount;\r\n        \r\n        // add them to list of stakers if they have staked at most once\r\n        if(!hasStaked[msg.sender])\r\n            stakers.push(msg.sender);\r\n\r\n        isStaking[msg.sender] = true;\r\n        hasStaked[msg.sender] = true;\r\n    }\r\n    //unstake token (withdraw)\r\n    function unstakeTokens() public {\r\n        //get the balance of the caller\r\n        uint balance = daiStakeBalance[msg.sender];\r\n        //check if balacne is more than 0\r\n        require(balance > 0, \"balance must be more than 0\");\r\n        //transfer all balance\r\n        daiToken.transfer(msg.sender, balance);\r\n        //set isstaking to false\r\n        daiStakeBalance[msg.sender] = 0;\r\n        isStaking[msg.sender] = false;\r\n    }\r\n\r\n\r\n    //earn interest - issue tokens\r\n    function issueTokens() public{\r\n        require(msg.sender == owner, \"caller must be the owner\");\r\n        for (uint256 i = 0; i < stakers.length; i++) {\r\n            address receipient = stakers[i];\r\n            uint balance = daiStakeBalance[receipient];\r\n            if(balance > 0)\r\n                dappToken.transfer(receipient, balance);\r\n        }\r\n    }\r\n}",
  "sourcePath": "C:\\dev\\dapp\\src\\contracts\\TokenFarm.sol",
  "compiler": {
    "name": "solc",
    "version": "0.8.0+commit.c7dfd78e.Emscripten.clang"
  },
  "schemaVersion": "3.4.3",
  "updatedAt": "2021-11-26T04:18:02.196Z",
  "networkType": "ethereum",
  "devdoc": {
    "kind": "dev",
    "methods": {},
    "version": 1
  },
  "userdoc": {
    "kind": "user",
    "methods": {},
    "version": 1
  }
}